{
  "contractName": "MainContract",
  "abi": [
    {
      "constant": true,
      "inputs": [],
      "name": "otherContract",
      "outputs": [
        {
          "name": "",
          "type": "address"
        }
      ],
      "payable": false,
      "stateMutability": "view",
      "type": "function"
    },
    {
      "inputs": [
        {
          "name": "_otherContract",
          "type": "address"
        }
      ],
      "payable": false,
      "stateMutability": "nonpayable",
      "type": "constructor"
    },
    {
      "anonymous": false,
      "inputs": [],
      "name": "SomethingHappenedInMainContract",
      "type": "event"
    },
    {
      "constant": false,
      "inputs": [],
      "name": "callMe",
      "outputs": [],
      "payable": false,
      "stateMutability": "nonpayable",
      "type": "function"
    }
  ],
  "bytecode": "0x6060604052341561000f57600080fd5b60405160208061024983398101604052808051906020019091905050806000806101000a81548173ffffffffffffffffffffffffffffffffffffffff021916908373ffffffffffffffffffffffffffffffffffffffff160217905550506101ce8061007b6000396000f30060606040526004361061004c576000357c0100000000000000000000000000000000000000000000000000000000900463ffffffff168063b0bea72514610051578063e98d36e114610066575b600080fd5b341561005c57600080fd5b6100646100bb565b005b341561007157600080fd5b61007961017d565b604051808273ffffffffffffffffffffffffffffffffffffffff1673ffffffffffffffffffffffffffffffffffffffff16815260200191505060405180910390f35b7f317704fa53fa6312f25916937e5994fa2f9200b04471a26ddcbbb921dc3257bb60405160405180910390a16000809054906101000a900473ffffffffffffffffffffffffffffffffffffffff1673ffffffffffffffffffffffffffffffffffffffff1663826926796040518163ffffffff167c0100000000000000000000000000000000000000000000000000000000028152600401600060405180830381600087803b151561016b57600080fd5b5af1151561017857600080fd5b505050565b6000809054906101000a900473ffffffffffffffffffffffffffffffffffffffff16815600a165627a7a7230582006ad3ba397af4da18541f4aca16be028e6c4350738551d4a1ca167103f8c5ace0029",
  "source": "pragma solidity ^0.4.21;\n\nimport \"./OtherContract.sol\";\n\ncontract MainContract {\n    OtherContract public otherContract;\n    event SomethingHappenedInMainContract();\n    function MainContract(address _otherContract) public {\n        otherContract = OtherContract(_otherContract);\n    }\n    function callMe() public {\n        emit SomethingHappenedInMainContract();\n        otherContract.doSomething();\n    }\n}\n",
  "sourcePath": "/Users/agro.rachmatullah/test/truffle/bug-event/contracts/MainContract.sol",
  "compiler": {
    "name": "solc",
    "version": "0.4.21+commit.dfe3193c.Emscripten.clang"
  },
  "schemaVersion": "2.0.0",
  "updatedAt": "2018-04-04T00:09:21.785Z"
}