{
  "contractName": "OtherContract",
  "abi": [
    {
      "anonymous": false,
      "inputs": [],
      "name": "SomethingHappenedInOtherContract",
      "type": "event"
    },
    {
      "constant": false,
      "inputs": [],
      "name": "doSomething",
      "outputs": [],
      "payable": false,
      "stateMutability": "nonpayable",
      "type": "function"
    }
  ],
  "bytecode": "0x60606040523415600e57600080fd5b60b08061001c6000396000f300606060405260043610603f576000357c0100000000000000000000000000000000000000000000000000000000900463ffffffff16806382692679146044575b600080fd5b3415604e57600080fd5b60546056565b005b7fb1dd0572e5c507b9e4d3d00a25f39a88e0273e7a565a765815ae05bffb33402e60405160405180910390a15600a165627a7a72305820b559b55628bc67a4b47101679932496c9133d85fea03fafeeea08f95deec5f910029",
  "source": "pragma solidity ^0.4.21;\n\ncontract OtherContract {\n    event SomethingHappenedInOtherContract();\n    function doSomething() public {\n        emit SomethingHappenedInOtherContract();\n    }\n}\n\n",
  "sourcePath": "/Users/agro.rachmatullah/test/truffle/bug-event/contracts/OtherContract.sol",
  "compiler": {
    "name": "solc",
    "version": "0.4.21+commit.dfe3193c.Emscripten.clang"
  },
  "schemaVersion": "2.0.0",
  "updatedAt": "2018-04-04T00:09:21.786Z"
}